:100000000C942A000C9447000C9447000C94470071
:100010000C9447000C9447000C9447000C94470044
:100020000C9447000C9447000C9447000C94470034
:100030000C9447000C9447000C9447000C94470024
:100040000C9447000C9447000C9447000C94470014
:100050000C94470011241FBECFE5D8E0DEBFCDBF12
:1000600010E0A0E6B0E0E8EEF4E002C005900D92EA
:10007000AA37B107D9F720E0AAE7B0E001C01D9286
:10008000AB37B207E1F70E9449000C9472020C945E
:1000900000000E9442020E9432020E94B3008AE7DE
:1000A00090E00E946C0280917A00882369F00E949F
:1000B0004C0180917A000E943C0280E690E00E9410
:1000C0003D0110927A00EBCF0E944C018BE690E04C
:1000D0000E943D01E4CFCF93C82F40E061E081E072
:1000E0000E94C10140E062E081E00E94C10140E065
:1000F00063E081E00E94C1018BB39C2F907F8F70E1
:10010000892B8BBB41E063E081E00E94C1018FE954
:100110009FE00197F1F700C0000040E063E081E05C
:100120000E94C1012BB330E1C39FC0011124922F63
:100130009F70892B8BBB41E063E081E00E94C1018D
:100140008FE99FE00197F1F700C0000040E063E015
:1001500081E00E94C1018FE39FE10197F1F700C0A8
:100160000000CF91089541E061E081E00E945001DC
:1001700041E062E081E00E94500141E063E081E003
:100180000E94500141E064E080E00E94500141E0A3
:1001900065E080E00E94500141E066E080E00E945E
:1001A000500141E067E080E00E9450012FEF81EEB6
:1001B00094E0215080409040E1F700C0000082E0D0
:1001C0000E946B0083E30E946B0082E30E946B003D
:1001D00088E20E946B008CE00E946B0081E00E942C
:1001E0006B0086E00E946B000895CF93C82F41E01A
:1001F00061E081E00E94C10140E062E081E00E9494
:10020000C10140E063E081E00E94C1018BB39C2FFB
:10021000907F8F70892B8BBB41E063E081E00E946F
:10022000C1018FE99FE00197F1F700C0000040E0B5
:1002300063E081E00E94C1012BB330E1C39FC001A4
:100240001124922F9F70892B8BBB41E063E081E0EA
:100250000E94C1018FE99FE00197F1F700C0000003
:1002600040E063E081E00E94C1018FE39FE10197DC
:10027000F1F700C00000CF910895CF93DF93EC0118
:100280008881882331F021960E94F500899181119F
:10029000FBCFDF91CF91089581E00E946B0008951C
:1002A000442319F04130C9F10895813091F028F0CC
:1002B0008230D9F0833029F108952AB381E090E0AB
:1002C00002C0880F991F6A95E2F7809582238ABB46
:1002D000089527B381E090E002C0880F991F6A95C6
:1002E000E2F78095822387BB089524B381E090E0F4
:1002F00002C0880F991F6A95E2F78095822384BB1C
:10030000089521B381E090E002C0880F991F6A959B
:10031000E2F78095822381BB0895813089F028F02F
:100320008230C9F0833011F108952AB381E090E062
:1003300002C0880F991F6A95E2F7822B8ABB089545
:1003400027B381E090E002C0880F991F6A95E2F719
:10035000822B87BB089524B381E090E002C0880F10
:10036000991F6A95E2F7822B84BB089521B381E03F
:1003700090E002C0880F991F6A95E2F7822B81BB3B
:100380000895442319F04130C9F10895813091F066
:1003900028F08230D9F0833029F108952BB381E021
:1003A00090E002C0880F991F6A95E2F7809582233A
:1003B0008BBB089528B381E090E002C0880F991F9D
:1003C0006A95E2F78095822388BB089525B381E082
:1003D00090E002C0880F991F6A95E2F7809582230A
:1003E00085BB089522B381E090E002C0880F991F79
:1003F0006A95E2F78095822382BB0895813089F067
:1004000028F08230C9F0833011F108952BB381E0D8
:1004100090E002C0880F991F6A95E2F7822B8BBB90
:10042000089528B381E090E002C0880F991F6A9573
:10043000E2F7822B88BB089525B381E090E002C0EB
:10044000880F991F6A95E2F7822B85BB089522B326
:1004500081E090E002C0880F991F6A95E2F7822B35
:1004600082BB08956F98BC9ABD9ABE98BF9A6C9A49
:100470006D9A699A689A08956E9AC4988FB9779B15
:10048000FECF0895579856985598549A539A80B528
:10049000806880BD529880B5846080BD80B58260E0
:1004A00080BD80B5806880BD80B58F7B80BD80B504
:1004B000806880BD80B58F7D80BD80B58F7E80BD1A
:1004C00080B5806880BD80B5877F80BD87E689B9AB
:1004D00010BC8898899A08955F9BFECF2CB1FC01CF
:0804E00020830895F894FFCF7A
:1004E80042542044617461204F4B004254204461BF
:0A04F8007461204E6F74204F4B001A
:00000001FF
