:100000000C942A000C9447000C9447000C94470071
:100010000C9447000C9447000C9447000C94470044
:100020000C9447000C9447000C9447000C94470034
:100030000C9447000C9447000C9447000C94470024
:100040000C9447000C9447000C9447000C94470014
:100050000C94470011241FBECFE5D8E0DEBFCDBF12
:1000600010E0A0E6B0E0E0E8F5E002C005900D92F7
:10007000A43AB107D9F720E0A4EAB0E001C01D928C
:10008000A53AB207E1F70E9449000C94BE020C9415
:1000900000000E94AF020E94DB000E9478010E94D3
:1000A00083010E948E010E9474010E94B902809314
:1000B000A400813349F018F4882339F12DC082332C
:1000C00071F08333B9F028C00E94740180E690E09B
:1000D0000E9465010E947E011092A400E6CF0E945A
:1000E00074018DE690E00E9465010E9489011092E2
:1000F000A400DBCF0E9474018AE790E00E946501B2
:100100000E9494011092A400D0CF0E94740187E84D
:1001100090E00E946501C9CF0E94740184E990E0DB
:100120000E946501C2CFCF93C82F40E061E081E01B
:100130000E940A0240E062E081E00E940A0240E080
:1001400063E081E00E940A028BB39C2F907F8F7046
:10015000892B8BBB41E063E081E00E940A028FE9BA
:100160009FE00197F1F700C0000040E063E081E00C
:100170000E940A022BB330E1C39FC0011124922FC9
:100180009F70892B8BBB41E063E081E00E940A02F3
:100190008FE99FE00197F1F700C0000040E063E0C5
:1001A00081E00E940A028FE39FE10197F1F700C00E
:1001B0000000CF91089541E061E081E00E94990143
:1001C00041E062E081E00E94990141E063E081E06A
:1001D0000E94990141E064E080E00E94990141E0C1
:1001E00065E080E00E94990141E066E080E00E94C5
:1001F000990141E067E080E00E9499012FEF81EED4
:1002000094E0215080409040E1F700C0000082E07F
:100210000E94930083E30E94930082E30E94930074
:1002200088E20E9493008CE00E94930081E00E948B
:10023000930086E00E9493000895CF93C82F41E079
:1002400061E081E00E940A0240E062E081E00E94F9
:100250000A0240E063E081E00E940A028BB39C2F17
:10026000907F8F70892B8BBB41E063E081E00E941F
:100270000A028FE99FE00197F1F700C0000040E01B
:1002800063E081E00E940A022BB330E1C39FC0010A
:100290001124922F9F70892B8BBB41E063E081E09A
:1002A0000E940A028FE99FE00197F1F700C0000069
:1002B00040E063E081E00E940A028FE39FE1019742
:1002C000F1F700C00000CF910895CF93DF93EC01C8
:1002D0008881882331F021960E941D018991811126
:1002E000FBCFDF91CF91089581E00E9493000895A4
:1002F00041E062E082E00E949901089562E082E0BC
:100300000E947B02089541E067E082E00E9499012B
:10031000089567E082E00E947B02089541E063E077
:1003200083E00E949901089563E083E00E947B02CC
:100330000895442319F04130C9F10895813091F0B6
:1003400028F08230D9F0833029F108952AB381E072
:1003500090E002C0880F991F6A95E2F7809582238A
:100360008ABB089527B381E090E002C0880F991FEF
:100370006A95E2F78095822387BB089524B381E0D4
:1003800090E002C0880F991F6A95E2F7809582235A
:1003900084BB089521B381E090E002C0880F991FCB
:1003A0006A95E2F78095822381BB0895813089F0B8
:1003B00028F08230C9F0833011F108952AB381E02A
:1003C00090E002C0880F991F6A95E2F7822B8ABBE2
:1003D000089527B381E090E002C0880F991F6A95C5
:1003E000E2F7822B87BB089524B381E090E002C03E
:1003F000880F991F6A95E2F7822B84BB089521B379
:1004000081E090E002C0880F991F6A95E2F7822B85
:1004100081BB0895442319F04130C9F1089581301A
:1004200091F028F08230D9F0833029F108952BB370
:1004300081E090E002C0880F991F6A95E2F78095ED
:1004400082238BBB089528B381E090E002C0880F1F
:10045000991F6A95E2F78095822388BB089525B39A
:1004600081E090E002C0880F991F6A95E2F78095BD
:10047000822385BB089522B381E090E002C0880FFB
:10048000991F6A95E2F78095822382BB0895813097
:1004900089F028F08230C9F0833011F108952BB330
:1004A00081E090E002C0880F991F6A95E2F7822BE5
:1004B0008BBB089528B381E090E002C0880F991F9C
:1004C0006A95E2F7822B88BB089525B381E090E01E
:1004D00002C0880F991F6A95E2F7822B85BB0895A9
:1004E00022B381E090E002C0880F991F6A95E2F77D
:1004F000822B82BB0895813089F028F08230C9F0C8
:10050000833011F108952BB381E090E002C0880F91
:10051000991F6A95E2F782278BBB089528B381E083
:1005200090E002C0880F991F6A95E2F7822788BB86
:10053000089525B381E090E002C0880F991F6A9565
:10054000E2F7822785BB089522B381E090E002C0E4
:10055000880F991F6A95E2F7822782BB08956F98EA
:10056000BC98BD98BE9ABF986C986D9A699A689A23
:1005700008956E9A779BFECF8FB10895F894FFCFC0
:100580004C45442D3020546F67676C65004C4544E2
:100590002D3120546F67676C65004C45442D322027
:1005A000546F67676C65004E4F204441544120539F
:1005B000454E540057726F6E6720436F6D6D616ECC
:0405C00064210000B2
:00000001FF
